:020000040800F2
:10000000C4F0012025060008390500080104000895
:10001000390500083905000839050008000000000E
:10002000000000000000000000000000390500088A
:10003000390500080000000039050008190500080E
:100040003905000839050008390500083905000898
:1000500039050008390500085D0500085D05000840
:100060005D0500085D0500085D050008390500080C
:100070003905000839050008390500083905000868
:10008000A90400088D040008390500083905000896
:100090003905000839050008390500085D05000824
:1000A0003905000839050008390500083905000838
:1000B000390500083905000805060008390500085B
:1000C0003905000839050008390500083905000818
:1000D00039050008110400087104000839050008FA
:1000E0005D050008390500083905000839050008D4
:1000F00039050008390500083905000839050008E8
:1001000039050008390500083905000839050008D7
:1001100039050008390500083905000839050008C7
:1001200039050008FD0400085104000839050008DD
:1001300039050008390500083905000839050008A7
:100140003905000839050008390500083905000897
:1001500039050008E104000831040008C50400085E
:100160003905000839050008390500083905000877
:100170003905000839050008390500083905000867
:100180003905000800000000000000000000000029
:100190003905000839050008FFFFFFFFFFFFFFFFDB
:1001A000FFFFFFFFFFFFFFFFFFFFFFFFFFFFFFFF5F
:1001B000FFFFFFFFFFFFFFFFFFFFFFFFFFFFFFFF4F
:1001C000FFFFFFFFFFFFFFFFFFFFFFFFFFFFFFFF3F
:1001D000FFFFFFFFFFFFFFFFFFFFFFFFFFFFFFFF2F
:10040000EFF30880EFF30981724600F071B9000044
:10041000684620F007018D4601B5044B186801F0CD
:1004200071F9BDE801408546704700BF00E001203A
:10043000684620F007018D4601B5044B186801F0AD
:100440007DF9BDE801408546704700BF00E001200E
:10045000684620F007018D4601B5044B186801F08D
:1004600093F9BDE801408546704700BF00E00120D8
:10047000684620F007018D4601B5034801F042F9B6
:10048000BDE801408546704730E00120684620F015
:1004900007018D4601B5034801F050F9BDE8014060
:1004A0008546704730E00120684620F007018D4600
:1004B00001B5034801F068F9BDE801408546704781
:1004C00030E00120684620F007018D4601B5034861
:1004D00001F018F9BDE801408546704748E0012069
:1004E000684620F007018D4601B5034801F026F962
:1004F000BDE801408546704748E00120684620F08D
:1005000007018D4601B5034801F03EF9BDE8014001
:100510008546704748E00120684620F007018D4677
:1005200001B5044ABDE801401368013313608546F4
:10053000704700BF14E00120064B074A5B6868461D
:1005400020F007018D4603F03F0301B5136000BEA4
:1005500000F0E2FA00ED00E060E00120264B5B686D
:10056000684603F03F0320F00701103B8D46092B3E
:1005700001B517D007D8072B0ED010D8062B37D1CE
:100580000122002329E0172B0FD0282B19D00A2B8A
:100590002ED11022042320E0022201231DE0042298
:1005A00002231AE00822032317E01448202205231F
:1005B00041690A4211D101330A2B4FEA4202F7D1B5
:1005C0000BE00E484FF480620A2341690A4204D1CD
:1005D0000133102B4FEA4202F7D108494A61084A19
:1005E0000C2101FB03235A6812B198685B68984795
:1005F000BDE801408546704700ED00E0003C014049
:1006000064E00120684620F00701054B8D464FF657
:10061000FE7201B51A8200BEBDE8014085467047F2
:100620000008004031498D46214B224A9A60224AF7
:100630002248D368224943F08073D360214B0022C3
:100640005A601A68884242F001021A6005D01E4AB8
:10065000824202D0121A02F013F900F06DFA00F093
:100660009FFA1A481A49884205D01A4A824202D093
:10067000121A02F005F91848184A194C0021121AEA
:1006800002F08EF900F08DFA00F060F9154BE41AD3
:10069000A40800251E46A54204D056F825309847E8
:1006A0000135F8E700F0E2F8014B0F4ADA6000BFCD
:1006B00000ED00E000000008F0ED00E000E00120A7
:1006C00050300008001000E000E0012000E00120B0
:1006D0005030000814E0012000000000000000007D
:1006E00048300008483000080400FA05C4F0012032
:1006F00080B48BB000AFF860B9607A6000237B6291
:1007000000233B627B68FB77FB7F03F00403002B35
:1007100002D0BB68BB6101E0FB68BB6101237B6168
:100720007B6983F31088504BDB6A03F00203002BD4
:1007300001D000BE93E04C4BDB6A03F08043002BFA
:1007400000F08C80484B9B6A03F08003002B02D0A2
:10075000454B5B6B7B62444B9B6A03F40043002B6D
:1007600002D0414B9B6B3B623F4B9B6A03F0010302
:10077000002B01D000BE72E03B4B9B6A03F00203EA
:10078000002B01D000BE6AE0374B9B6A03F00803E0
:10079000002B01D000BE62E0334B9B6A03F01003D4
:1007A000002B01D000BE5AE02F4B9B6A03F48073EC
:1007B000002B01D000BE52E02B4B9B6A03F4007368
:1007C000002B01D000BE4AE0274B9B6A03F48063F4
:1007D000002B01D000BE42E0234B9B6A03F4006370
:1007E000002B01D000BE3AE01F4B9B6A03F48053FC
:1007F000002B01D000BE32E01B4B9B6A03F4803318
:10080000002B01D000BE2AE0174B9B6A03F4003393
:10081000002B01D000BE22E0134B9B6A03F480231F
:10082000002B01D000BE1AE00F4B9B6A03F400239B
:10083000002B01D000BE12E00B4B9B6A03F08073CB
:10084000002B01D000BE0AE0074B9B6A03F0007347
:10085000002B01D000BE02E000BE00E000BE2C373D
:10086000BD465DF8047B704700ED00E000B5ABB01D
:1008700000F096F800F043F928B100F025FD0020C3
:10088000012100F0BBF800F09BF800238DF85130F7
:10089000159302A850230421182200F061FC159B37
:1008A00001939DF95130DBB19DF82C30022B17D00C
:1008B0009DF80830023B012B03D802A801A900F0E3
:1008C000BDF89DF950305BB10022012316A8299292
:1008D0008DF8A0308DF8A1208DF87C3000F064FCFC
:1008E000019800F00AF9FEE7174B102283F8032362
:1008F000202283F83123302283F83B2383F80E2310
:10090000602283F8252383F8262383F84723702267
:1009100083F8452383F8392383F8462383F83A2361
:1009200083F8112383F81023E02283F8062383F849
:10093000072383F8082383F8092383F80A2383F81D
:10094000172383F82823704700E100E038B5124DE3
:1009500005F1A0042046032100F020FE03212046DB
:1009600000F01CFE204600F0BBFD204605F5847417
:1009700000F0B6FD0321204600F010FE204600F0F6
:10098000A1FD2046032100F009FE05F58C7002212F
:10099000BDE8384000F002BE502A00080020704731
:1009A000054B402283F82320A3F54F63034A5A6086
:1009B00007221A60704700BF00ED00E09F8601002B
:1009C000044B402283F82320034A136823F00303D7
:1009D0001360704700ED00E010E000E0064B0022DD
:1009E0001A765A769A76DA7783F8202083F82220CE
:1009F000F02283F82320704700ED00E000B595B0A9
:100A0000002313938DF84810012369468DF849306F
:100A10008DF8243000F0C8FC08B104200BE06846D3
:100A200004211822502300F0F7FB20B1684600F0A3
:100A3000BBFB0028F1D115B05DF804FB2DE9F041B6
:100A40000378022B96B00446884642D109A90022B9
:100A5000342300F0F5FC00254FF0FF372E46BDF89B
:100A600050309E4210D2109BBDF84E20204602FB13
:100A7000063201A9202300F0E3FC059B13B1019A83
:100A8000D10728D40136EAE7E91B384600F016F909
:100A9000204609A90022342300F0D2FC0025BDF82D
:100AA00050309D4210D2109BBDF84E20204602FBD4
:100AB000053201A9202300F0C3FC059B13B1019A64
:100AC000D20711D40135EAE70F9BC8F800300020A7
:100AD00010E005200EE0049A9742134428BF174601
:100AE0009D4238BF1D46CDE720460299049A00F08A
:100AF000F7F8E7E716B0BDE8F08100F06DB808B58B
:100B000041F28830FFF74AFF41F28733984294BFA1
:100B10000020012008BD0000BFF34F8F0449054BA2
:100B2000CA6802F4E0621343CB60BFF34F8FFEE765
:100B300000ED00E00400FA0507B5012001F000F91E
:100B400001F0C8F9002001F02BF9002001F03CF978
:100B50004FF4805001F02EF9032000F0A9FF01208E
:100B600000F0ACFF042300934FF480001A21C82248
:100B7000022301F0EDF8012001F0FAF8392001F02C
:100B800095F90028FAD0022001F0F8F801F000F9F8
:100B90000828FBD1042003B05DF804EB00F0A6BEEA
:100BA000704708B500F016FE0023F02103F1604203
:100BB00002F561420133602B82F80013F6D14FF445
:100BC000407000F089FEFFF709FFFFF78DFEBDE8DA
:100BD000084000F093BC000008B90B4B58684FF078
:100BE000FF3E4FF0807181F300884FF0000181F3E8
:100BF000108881F3138881F3118881F3148840F001
:100C000001000047704700BF0040000838B50446A7
:100C10000D4600F05FFFF32000F072FF00F028FEA9
:100C2000AC420AD82046022100F0A2FF092800D0D9
:100C3000FEE700F01DFE0834F2E700F059FF002047
:100C400038BD2DE9F04781460F46904601EB020A78
:100C500000F040FFF32000F053FF3C464D46544562
:100C60001ED2AB0710D1C4EB0A030F2B4FF00B06BB
:100C70000BDD2846216800F0B1FF092801D0013EB4
:100C8000F7D104350434EAE70B262846217800F032
:100C9000C3FF092801D0013EF7D101350134DEE759
:100CA00039464246484601F0B9FD00280CBF0024F1
:100CB000042400F01DFF2046BDE8F087064B984253
:100CC00008D2064B984207BF002003210820382194
:100CD000FFF79CBF704700BF00000020000000002D
:100CE0002DE9F0410E4614498A4290B080461F46D5
:100CF000154619D2E7B1402F3C4628BF402469462B
:100D000032462346404600F09BFB69462246284671
:100D1000FFF797FF28466946224601F07FFD38B964
:100D2000264425443F1BE5E71146324600F088FB88
:100D300010B0BDE8F08100BF000000202DE9F04FA9
:100D400091B082461A9E8846174699460C464FF047
:100D5000000BBC4220D23D1B402D28BF40255046F1
:100D600021466A462B4601F09DF9B9F1010F0BD1DE
:100D7000C8EB0403132B07D8EA18182A82BF1433D0
:100D80004FF000094DF803B032466846294601F09D
:100D90001DF92C440646DCE7304611B0BDE8F08F63
:100DA0007FB50C461546143103AA0423064601F00C
:100DB00079F94FF0FF330093304621462A4601234C
:100DC000FFF7BCFF039BC31A5842584104B070BDE3
:100DD0002DE9F041804690B00E4617461C46C4B13E
:100DE000402C254628BF4025404639466A462B46BA
:100DF00001F058F908B104200CE0404631466A463B
:100E00002B4601F0F1F90028F5D12F442E44641B44
:100E1000E5E7204610B0BDE8F0810000F0B50027FE
:100E200085B00E46144605461773576110464FF4B9
:100E3000C6714FF0FF328DF80F7001F0C7F83B46D6
:100E4000009006F5C67106F580422846FFF776FF4A
:100E50000127606127732846314622464FF4C67346
:100E600001F0C2F9A0B9284606F10C010DF10F02FC
:100E70003B4601F0B9F9044650B909498E4208D001
:100E800028460F310DF10F023B4601F0ADF900E0AD
:100E90000424284601F00AFA204605B0F0BD00BF40
:100EA0000000000070B5054668B10C4601F58046AB
:100EB000B44206D22146284601F072F904F5805466
:100EC000F6E7002070BD042070BD00002DE9F04160
:100ED000ADF5996D00214FF4C6720746CFA801F019
:100EE0005FFD002104A80A468DF80F1001F0E0F91B
:100EF000002842D14A4C04A8214609AA4FF4C673DF
:100F000001F0D0F818B104A801F0D0F935E0DFF80D
:100F1000248104A841466CAA4FF4C67301F0C2F8BC
:100F20000028F0D19DF930309BB90B993D4A914290
:100F300011D19DF93350012D01D10E9B63B13A4A75
:100F4000374904A82244FFF72BFF431E5D425D4151
:100F500002E0054600E01D469DF9BC31334E7BB9E9
:100F60006E9A304B9A420BD1314A324904A842441E
:100F7000FFF716FF012803D105E04FF0FF304AE0EC
:100F8000012D16D111E0012D07D19DF93330012B30
:100F90000BD00D9A709B9A4207D204A801F086F9F3
:100FA00056F8273008EB030035E004A801F07EF97D
:100FB0002EE01B4904A8FFF775FF00214FF4C6720D
:100FC000CFA801F0EDFC0125164BD1934FF4C6716B
:100FD0004FF0FF32CFA88DF8495300F0F7FF124AC7
:100FE000009015492244002304A8FFF7A7FE0C49EE
:100FF000D490CFAA4FF4C67304A88DF8485301F0DB
:10100000F3F804A80D490DF10F022B4601F0ECF89E
:1010100056F8270020440DF5996DBDE8F08100BF1A
:10102000000000004252434D00400000C42B000865
:1010300000400000004000008C0100000C00000097
:10104000F0B50646E5B004200F461446FFF73EFF14
:10105000431C05463CD0204A2049884208BF11461F
:1010600039603046FFF71EFF2946304601AA4FF48B
:10107000C67301F017F8054638BB34B301A94FF425
:10108000C672204601F0FCFB019B2360029B63605B
:1010900007A9502204F1180001F0F2FB04F16800E6
:1010A0001BA94FF4907201F0EBFB639BC4F88831ED
:1010B0000B4BA3609DF811306373059B25730133BF
:1010C000E57365612361284603E0304601F0EEF8E0
:1010D000042065B0F0BD00BF00400000000000002B
:1010E0004252434D70B50446EAB004200D46FFF766
:1010F000EDFE431C064601D104202FE002A800218A
:10110000012201F0D5F80028F6D102A801A907AA0A
:10111000FFF796FF0028EFD1242307AA03FB05253C
:10112000234603F1200205F1680418685968254632
:1011300003C5083393422C46F7D1186828600199FB
:1011400006F5C67201F5C67102A843F67463FFF78F
:101150003FFE02A8019907AAFFF760FE6AB070BDC2
:10116000F0B5064687B008461D461746FFF7AEFEA7
:10117000431C044601D1042413E0002101A80A46BF
:1011800001F096F80028F6D1E11901A832462B4665
:1011900000F088FF002801A814BF0424002401F0F7
:1011A00085F8204607B0F0BD30B50446EBB008B96D
:1011B000042027E00420FFF789FE431C0546F7D0F2
:1011C00002A80021012201F073F80028F0D102A842
:1011D00001A907AAFFF734FF0028E9D1019905F515
:1011E000C67201F5C67143F6746302A8FFF7F0FDFD
:1011F000214650220DA801F043FB02A8019907AA3D
:10120000FFF70CFE6BB030BD072902D808B1FFF71D
:1012100069BF0420704700002DE9F0411F46294BAB
:1012200053F821401444B4F5C67FEAB0804624D375
:10123000E519B5F5804F20D80420FFF747FE431C81
:1012400006461AD002A80021012201F031F8A0B907
:1012500002A801A907AAFFF7F3FE70B9B4F5C67397
:101260000DD0019902A801F5C67106F5C672FFF707
:10127000AFFD20B102A801F019F804201EE0019989
:1012800002A8214442463B4600F0AEFF0028F1D1BF
:10129000D5F5804308D0019AB91802A821447219E3
:1012A000FFF796FD0028E5D1012302A801998DF8EA
:1012B000293007AAFFF7B2FD0028DBD16AB0BDE8EC
:1012C000F08100BFC42B0008F0B5F3B04FF4907369
:1012D0002AA804216822FFF743FF9DF8A830022BBB
:1012E00048D12B9BB3F5004F44D19DF8CC30022B55
:1012F00040D1349A48F222039A423BD168460021F9
:10130000012200F0D5FF044600283FD1254E684653
:101310003146FFF7C7FD342333A80DA9224600F05C
:101320008FF8BDF86030012B03D0684600F0BEFF97
:101330002CE033A805A9149A202300F081F8099D18
:10134000069F002DF1D0402D2C4628BF402433A805
:101350001AA93A46234600F073F838B16846314678
:101360001AAA234600F040FF0028DED12744264475
:101370002D1BE6E702238DF8A8304FF400428DF8CC
:10138000CC3048F222032B923493B7E72AA80021ED
:10139000FFF73AFF33A80121FFF736FF002073B0B3
:1013A000F0BD00BF00000000072808D800EBC00215
:1013B00092000846683204212423FFF7D1BE04209E
:1013C00070472DE9F041002790F800803C46FDB2BF
:1013D000454531D2BE00851990F801C0AD882D0376
:1013E000BCF1000F01D0A5EBD515A14205EB040E11
:1013F0001FD371451DD2091BBCF1000F0FD006444D
:101400000F0B74884FF47E6001EB471704EB17361F
:10141000B1FBF0F400FB141000EB063003E00644CF
:10142000708801EB0030691A106019600020BDE877
:10143000F08174460137CAE70420BDE8F08100005E
:101440002DE9F041044690B00F460021904602A8D5
:101450000A461D4600F02CFF222302A8616807AA55
:1014600000F020FE9DF81D302BB1069B1BB142F20F
:1014700060029E5800E0124E0024CDB1C4B907A806
:1014800041466A4601ABFFF79CFF80B9019B00997A
:101490009D4202A83A4603D82B46B04784B207E0E3
:1014A000B047019B84B2ED1A98441F44E5E7042439
:1014B00002A800F0FBFE204610B0BDE8F08100BF9E
:1014C000A520000810B5044600F0D6F8217922685E
:1014D00001238B409BB2138300F0D1F8002010BD94
:1014E00010B5044600F0C8F82179226801238B402A
:1014F0009BB2538300F0C3F8002010BD08B5C02292
:101500000021054801F04CFA4FF48040012100F021
:10151000B5FC002008BD00BF64E001201B4B9842D1
:101520002AD012D8A3F54063984221D004D8A3F55D
:101530008063984228D025E0154B98421AD003F5D5
:10154000806398421ED103207047124B984215D0F9
:1015500005D8A3F58063984214D1052070470E4B3F
:1015600098420DD003F5806398420BD10820704754
:101570000120704702207047042070470620704702
:1015800007207047FF20704700207047001002407E
:101590000008024000180240001C024073B50646D5
:1015A0000C4600F069F835682846FFF7B7FF164A81
:1015B000164B116B53F820300B43136302239C42EC
:1015C00094BF002201228DF80420E21E18BF0122E0
:1015D0008DF805308DF806200CB1052C01D10123C2
:1015E00002E0012C18BF002332798DF8073002A9E0
:1015F0000123934041F8083D284600F029FB00F004
:101600003EF8002002B070BD00380240E02B000818
:101610002DE9F3410D4690461F460646FFF77EFF33
:10162000044600F029F81249124A0B6B52F8244084
:101630001C430C6302218DF805108DF80410012263
:1016400002A9AA4041F8082D30468DF806808DF891
:10165000077000F0FDFA304629469DF8202000F082
:101660003BFB00F00CF8002002B0BDE8F08100BFA9
:1016700000380240E02B000841F27B70704741F2D5
:101680007B7070470E4B984204D80E4A93681943FA
:10169000916070470C4B984204D80A4AD3681943AA
:1016A000D1607047094B9842A3F1580395BF9A68DF
:1016B000DA681143114394BF9960D960704700BF45
:1016C0005860024000600240B86002405864024026
:1016D000094B984202D853F8580C7047074B984270
:1016E00002D853F8B40C7047054B9842A3F1580345
:1016F00094BF18685868704758600240B86002404C
:101700005864024003681A681B6B10B54FF6FF71EE
:101710000446406811805A6843689B1AC360236975
:101720005BB100F0CFF82369984206D304F10800BA
:10173000012100F05DFC0023236110BD036810B59A
:1017400004469869FFF7C4FF2368596A084204D029
:101750009869FFF797FF0023E38223689869FFF7F2
:10176000B7FF2368996A084204D09869FFF78AFF97
:101770000423E382E36833B104F109000121BDE8E9
:10178000104000F035BC10BD036810B50446186B5E
:10179000FFF79EFF2368D96B084204D0186BFFF750
:1017A00071FF0023A3822368186BFFF791FF236862
:1017B000196C084204D0186BFFF764FF0423A3825E
:1017C000236933B104F108000121BDE8104000F0A5
:1017D0000FBC10BD1FB545F2555000F08FFA062022
:1017E00000F092FA4FF47D6000F094FA00F098FA5D
:1017F00000F09EFA1B4B9B68DB042ED504200121D0
:1018000000F030FB0420002100F044FB45F6C053FB
:101810004AF22212ADF8043013480292002301A9C3
:10182000ADF80630ADF80C308DF80E3000F06AFBE4
:101830000D48012100F0C5FB01210A460A4800F0CD
:10184000B7FB0948012100F09BFB084B06484FF00D
:1018500080421A60012100F09FFB002005B05DF876
:1018600004FB00BF002004E00008004000E100E0AD
:101870001FB500F055FA114B9B68DB0419D51048D1
:10188000002100F089FB45F6C053ADF804304AF260
:10189000221200230A48ADF8063001A90292ADF8E1
:1018A0000C308DF80E3000F02DFB0548012100F0C2
:1018B00073FB002005B05DF804FB00BF002004E0CE
:1018C000000800404268C368806813441B1AB3FBD9
:1018D000F2F002FB1030704740F0BF60024B40F462
:1018E0000030D860704700BF00ED00E0044B1A687C
:1018F00004280CBF42F0040222F004021A60704770
:1019000010E000E0036823F001030360002303609C
:1019100043608360C360036121234361294B984284
:1019200017D0294B98421BD0284B984220D0284BE7
:10193000984225D0274B98422AD0274B98422ED048
:10194000264B984232D0264B984236D0254B9842AF
:1019500003D13D2243F8082C7047234B984204D111
:101960004FF4746243F8202C7047204B984204D106
:101970004FF4741243F8382C70471D4B984204D131
:101980004FF0746243F8502C70471A4B984203D1C1
:10199000194A43F8642C7047184B984203D1184AEF
:1019A00043F87C2C7047174B984203D1164A43F8F2
:1019B000942C7047154B984203D14FF03D5243F899
:1019C000AC2C70471060024028600240406002402A
:1019D000586002407060024088600240A06002408F
:1019E000B860024010640240286402404064024033
:1019F00058640240706402403D0000208864024048
:101A0000400F0020A064024000003D20B864024066
:101A10000268134B10B51340CC680A6814434A6936
:101A200014438A691443CA6914430A6A14434A6A0C
:101A300014438A6A14434A6B14438A6B2243134348
:101A4000036043690C6B23F00702CB6A2343134303
:101A500043610B6943604B6883608B68C36010BD52
:101A60003F801CF0036811B143F0010301E023F053
:101A700001030360704700000A4B0B4A10B50B4C82
:101A8000A04294BF184610468B004CBF43680368C1
:101A900021F0F02121F08211194214BF0120002011
:101AA00010BD00BF00600240006402400F640240AD
:101AB000014BC0B218707047003C0240044B1A68DA
:101AC00010B142F4807201E022F480721A60704713
:101AD000003C0240044B1A69002ABFBF034A5A6007
:101AE00002F188325A607047003C0240230167458A
:101AF000024A136943F0004313617047003C0240FF
:101B0000014BD860704700BF003C02400E4BDA68C2
:101B1000D20310D4DA68D1060FD4DA68D2050ED415
:101B2000DA6812F0E00F0CD1DB6813F0020F14BF7B
:101B300008200920704701207047062070470220C6
:101B400070470720704700BF003C024007B50923DB
:101B50008DF80730FFF7DAFF8DF807009DF80730A2
:101B6000012BF7D09DF8070003B05DF804FB0000DF
:101B700070B5064641B1012908D002290CBF4FF4C7
:101B800000754FF4407503E00D4601E04FF4807599
:101B9000FFF7DCFF09281ED10F4C236923F44073A3
:101BA0002361216929432161236923F0F80323611B
:101BB000236943F002031E432661236943F4803303
:101BC0002361FFF7C3FF236923F002032361236925
:101BD00023F0F803236170BD003C024070B5054658
:101BE0000E46FFF7B3FF092813D10A4C236923F4EB
:101BF00040732361236943F400732361236943F035
:101C0000010323612E60FFF7A1FF236923F0010385
:101C1000236170BD003C024070B505460E46FFF7DB
:101C200095FF092811D1094C236923F440732361DE
:101C300023692361236943F0010323612E70FFF7B9
:101C400085FF236923F00103236170BD003C02403E
:101C50002DE9F0430E68002301274FF0030E07FA29
:101C600003F202EA060C944531D15D0004680EFAD5
:101C700005F2D243144004600C79D0F8008004FAD5
:101C800005F9013C49EA0808012CC0F8008016D883
:101C9000846891F8058014408460846808FA05F827
:101CA00048EA04048460446824EA0C0444608C79A3
:101CB000D0F804C09C40A4B244EA0C044460C46858
:101CC0002240C260CA79C468AA402243C26001337C
:101CD000102BC4D1BDE8F08301F00703C90800EB65
:101CE000810010B59B00046A0F21994024EA01018C
:101CF0000162016A9A401143016210BD014B1860F4
:101D0000704700BF00300040014B5860704700BF73
:101D100000300040014B9860704700BF0030004029
:101D2000024B4AF6AA221A60704700BF00300040FA
:101D3000024B4CF6CC421A60704700BF00300040A6
:101D4000024B00221A701870704700BF0238024020
:101D500010B5029C40EA046001435B08013B41EA84
:101D6000821242EA0340014B586010BD0038024025
:101D7000014B1860704700BF60004742034A9368F8
:101D800023F0030318439060704700BF00380240FF
:101D9000024B986800F00C00704700BF003802400A
:101DA000034A936823F0F00318439060704700BF24
:101DB00000380240034A936823F4E05318439060CC
:101DC000704700BF00380240034A936823F4604321
:101DD00043EAC00090607047003802401D4A936893
:101DE00003F00C03042B10B503D0082B03D01A4BBF
:101DF00018E01A4B16E05168536811F4800F03F095
:101E00003F03516814BF154A134AB2FBF3F3114A5A
:101E10005268C2F30142C1F3881101324B435200B0
:101E2000B3FBF2F30B4A036093680D49C3F303134A
:101E3000CC5C0368E34043609468C4F382240C5D87
:101E400023FA04F484609268C2F342328A5CD3407D
:101E5000C36010BD003802400024F40080BA8C0139
:101E600004E00120044B1A6C09B1104301E022EA9E
:101E700000001864704700BF00380240044B5A6CE1
:101E800009B1104301E022EA00005864704700BF26
:101E900000380240044B1A6A09B1104301E022EAFB
:101EA00000001862704700BF003802404209012A52
:101EB000074B01D11B6803E0022A0CBF1B6F5B6F4D
:101EC00000F01F0023FA00F000F00100704700BF8F
:101ED0000038024007B5002301933120FFF7E6FFE9
:101EE000019B01330193019BB3F5A04F01D0002862
:101EF000F3D03120FFF7DAFF003018BF012003B024
:101F00005DF804FB1C4A038890429BB212D002F594
:101F1000806290420ED0B0F1804F0BD0A2F580329B
:101F2000904207D002F58062904203D002F58062B1
:101F3000904203D14A8823F0700313430F4A904222
:101F400008D002F5806290421FBF23F440730A89D3
:101F50009BB2134303804B68C3620B880385064B17
:101F6000984203D003F58063984201D18B7A0386AF
:101F700001238382704700BF000001400010004031
:101F8000038819B19BB243F0040303E023F0040378
:101F90001B041B0C03807047038819B19BB243F0EC
:101FA000010303E023F001031B041B0C03807047B3
:101FB00083899BB20AB1194301E023EA01018181BF
:101FC0007047C94389B201827047000010B5074CC1
:101FD0000144884208D210F8013B5340DBB254F868
:101FE000233083EA1222F4E7104610BD002C0008CB
:101FF00072B603780133DBB2037062B6002070471B
:102000001FB500220123009302910192052113467E
:1020100000F003F805B05DF804FB30B58DB00CACF2
:1020200005460693119B04F8291D01200021099300
:10203000129B04910590079108920A936868109B7F
:10204000039403A903220B9300F062F9D8B99DF819
:102050000730022B0BD0C72B09D003F0BF02202A78
:1020600005D0522B03D0D82B01D0C42B0BD128463E
:102070000DF10B01FFF7C4FF28B99DF80B3013F0E9
:102080000103F4D118460DB030BD1FB50022032363
:102090000093029101929F211346FFF7BEFF05B006
:1020A0005DF804FB10B586B0C1F307448DF8144009
:1020B0008DF81610C1F30724009303210023019328
:1020C000029205AB0A468DF81540FFF7A6FF06B051
:1020D00010BD1FB5002200920192029250211346BA
:1020E000FFF79BFF05B05DF804FB1FB5002201233D
:1020F00000930291019270211346FFF78EFF05B005
:102100005DF804FB10B5837886B0BF2B04468DF8CC
:1021100017100BD00DF1170300220121019300913C
:10212000029220461346FFF778FF09E00022009252
:102130000192029250211346FFF76FFF0028E9D069
:1021400006B010BD10B5037B012B86B0044623D129
:10215000002200920192029206211346FFF75DFFD2
:10216000E0B90DF117012046FFF74AFF014688B993
:102170009DF81730022B0DD02046FFF7C3FF024613
:1021800060B9009001900290062120461346FFF7A7
:1021900044FF03E0084601E04FF0FF3006B010BDF9
:1021A00010B586B0C1F307438DF81430C1F307238F
:1021B00004468DF815308DF81610FFF7C3FF70B97F
:1021C0002168084A009091420190029008BFD821EE
:1021D000204618BF2021032205ABFFF71EFF06B0E3
:1021E00010BD00BF20BB20002DE9F04D067B012E65
:1021F00086B0074688469B464DD18378C22B4DD08A
:10220000BF2B0AD01C2B49D0202B05D0C82B14BFC4
:1022100001264FF4807600E08026DFF88CA015467A
:10222000BBF1000F35D0B8FBF6F406FB148424B9DB
:10223000B3455C4628BF344603E0341B5C4528BFE9
:102240005C46C8F307438DF814303846C8F30723BB
:102250008DF815308DF81680FFF774FF08BB0290DB
:102260008DE8300038460221032205ABFFF7D5FE8A
:10227000B8B93B68534507D138460DF11301FFF754
:1022800034FF3846FFF725FF2544A044C4EB0B0B71
:10229000C6E7584605E04FF0FF3002E04FF4807685
:1022A000BBE706B0BDE8F08D20BB200000F03CB8D5
:1022B00037B504460846211D154600F01BF8B0B995
:1022C00020602573204601A9FFF7DFFE78B99DF84D
:1022D00005309DF804201B0203EB02439DF8062005
:1022E000012D1344236002D12046FFF72BFF03B0DA
:1022F00030BD000010B505480C4600F021F808B9C3
:10230000206010BD4FF0FF3010BD00BF402A000814
:1023100008B592B2034800F03FF8003018BF012022
:10232000404208BD402A000808B5044800F02AF8D9
:10233000003018BF0120404208BD00BF402A0008FD
:102340001FB542686FF000439A4216BF0B4B002343
:1023500003EBC203039383680193037B8DF808307A
:10236000437B02688DF80930054B4C2000FB02309E
:1023700001A900F095F805B05DF804FB502A0008AB
:10238000782B00080268034B4C2000FB023000F061
:1023900021B900BF782B00087FB5456813466FF060
:1023A0000042954282680192027B8DF80820427BB0
:1023B00018BF0A4C8DF809200E46094A01684FF0F3
:1023C0004C0014BF04EBC504002400FB012001A94C
:1023D0003246039400F000F904B070BD502A0008A2
:1023E000782B0008F0B585B0064668460F46FFF723
:1023F000F5FC039D0A49002331F82340B5FBF4F4B2
:10240000B4424FEA830205D8054B134400205B8891
:102410003B8003E00133082BEED1042005B0F0BD72
:102420001430000838B504460D462068022100F03B
:10243000EEF90028F9D02068294600F0D1F920688B
:10244000012100F0E4F90028F9D02068BDE8384007
:1024500000F0C3B9114B984216D0A3F578439842C7
:1024600014D003F58063984212D003F57843984264
:1024700010D003F5E05398420ED003F580639842E4
:102480000CBF0520FF2070470020704701207047D7
:10249000022070470320704704207047003001403D
:1024A000F0B5044689B00E46FFF7E6F82068FFF75E
:1024B000D1FFA36922791979009200220746186892
:1024C0001346FFF7A5F8032F05BF23792269236977
:1024D00011791DBF22791979009203F1FF3303BFEF
:1024E000DBB200931068186800221346FFF790F8DB
:1024F0006369227919790092002218681346FFF760
:1025000087F80321B068FFF749F8B068FEF7DAFFF3
:10251000306806A9FFF766FF0546002851D1737998
:10252000082B02D1ADF810000CE0102B02D133794A
:10253000580703D5FFF7A3F8072045E04FF40063E1
:10254000ADF81030327911074CBF0023802302F020
:102550000201ADF81A3001F0FF0319B10221ADF804
:10256000121001E0ADF81230D20703D5003318BFC6
:10257000012302E0B3FA83F35B09144AADF8143087
:10258000134B52F8270053F82730012198474FF496
:1025900082730025ADF80E304FF40073ADF816309D
:1025A0002068ADF80C5007232946ADF81C3000F028
:1025B00019F9206803A900F0E5F82068012100F06E
:1025C00000F9FFF75CF8284609B0F0BD00300008BC
:1025D00034300008072070472DE9F04F0F4693B0C4
:1025E00015461E460446FFF747F8B868FEF778FF21
:1025F0004FF00C0905F1040809FB06594FF0FF0ADA
:102600004D4500F0B3803B79590774D5206A8DF8A9
:102610000BA0FFF777F9636A03932368AA689B8985
:1026200007929BB204934023069300234FF4403259
:1026300008930A930B930C930E931093119358F8ED
:10264000043C0D9203220F921BB105934FF480635B
:1026500002E00DF10B020592206A099303A9FFF72E
:10266000D7F901222068022100F0C8F8A06BFFF71B
:1026700049F9E36B039323680C330493AB68079326
:102680004FF440330D9303230F936B68002206929F
:1026900008920A920B920C920E92109211921BB118
:1026A00005934FF4806302E00DF10B020592206A5E
:1026B000099303A9FFF7ACF901210A46206800F04D
:1026C0009DF8206A0121FFF7CDF9A06B0121FFF7EA
:1026D000C9F942F21076206AE16AFFF7CDF930B904
:1026E000013EF8D1B868FEF7EDFE022441E0B8687B
:1026F000FEF7E8FE36E07B79AE68082B16D158F875
:1027000004BC6B6876B3BBF1000F04D09BF80010DB
:102710000BF1010B00E0FF2120460193FFF782FE41
:10272000019B0BB118700133013EEBE7102B19D15F
:10273000F20758F804BC6B681AD49EB1BBF1000FC5
:1027400004D0BBF800100BF1020B01E04FF6FF7153
:1027500020460193FFF766FE019B0BB11880023300
:10276000023EEAE70C3508F10C0849E7002400E0D6
:102770000424B868FEF7A6FEFEF781FF204613B0DA
:10278000BDE8F08F03884A8810B503F441540B88E4
:1027900013438A881343CA8813430A8913434A8917
:1027A00013438A891343CA89134323439BB203808B
:1027B000838B23F400631B041B0C83830B8A03822B
:1027C00010BD038819B19BB243F0400303E023F02E
:1027D00040031B041B0C03807047808980B2704744
:1027E00081817047038819B19BB243F4005303E021
:1027F00023F400531B041B0C0380704783889BB297
:102800000AB1194301E023EA01018180704703897D
:10281000194214BF0120002070470000032A70B441
:1028200026D940EA01039B0711D004780D78AC4209
:1028300022D10244431C05E013F8014B11F8015F5B
:10284000AC4219D19342F7D1002070BC70470C46BE
:1028500003461E682568AE421846214603F104036C
:1028600004F1040404D1043A032A18462146F0D89E
:10287000002ADAD11046E8E7601B70BC704700BF41
:102880000F2A2DE9F0413FD940EA01039D0775D198
:1028900000F1100401F11003154653F8106C44F8D0
:1028A000106C53F80C6C44F80C6C53F8086C44F83A
:1028B000086C103D53F8046C44F8046C0F2D03F1C0
:1028C000100304F11004E8D8A2F1100323F00F0361
:1028D00002F00F0E1033BEF1030F194403445CD90C
:1028E0001E1F0D467446043C55F8047B46F8047FD1
:1028F000032CF8D8AEF1040424F003040434234478
:10290000214402F0030200E00346551EA2B30C1D51
:102910001E1DB14238BFA3422CBF01240024092A46
:1029200094BF002404F001046CB343EA0104A4073B
:1029300029D1141FA4080134022D4FEA840710D9AD
:10294000A1F1040C9E46002601365CF8048F4EF877
:10295000048BB442F8D8BA423B443944A5EB07058E
:102960000AD00A781A703DB14A785A70012D08D001
:102970008A789A70BDE8F081BDE8F0810346551E63
:10298000C5E7BDE8F081013B0A4411F8014B03F8AB
:10299000014F9142F9D1BDE8F0817246B5E700BF21
:1029A00070B4840749D0541E002A44D0CDB20346E7
:1029B00003E0621E002C3ED0144603F8015B9A0728
:1029C000F7D1032C2ED9CDB245EA05250F2C45EAC7
:1029D000054519D903F110022646103E0F2E42F884
:1029E000105C42F80C5C42F8085C42F8045C02F1AE
:1029F0001002F2D8A4F1100222F00F0204F00F042A
:102A00001032032C13440DD91E462246043A032AE1
:102A100046F8045BFAD8221F22F003020432134462
:102A200004F003043CB1C9B2012C197003D0032C8B
:102A3000597000D1997070BC704714460346C0E7C6
:102A4000000000000200000040787D010B0800003B
:102A500000040240020000000000024007000000E5
:102A600000000240040000000000024005000000D9
:102A700000040240040000000000024002000000C8
:102A800000000240010000000000024003000000BE
:102A90000000024000000000000402400A000000A4
:102AA0000004024009000000000402400C00000085
:102AB0000004024003000000000002400F0000007C
:102AC0000004024004000000000002400E0000006C
:102AD000000002400D000000000402400800000059
:102AE0000004024001000000000402400000000059
:102AF000000C024000000000000802400600000038
:102B00000008024007000000000802400800000022
:102B10000008024009000000000802400400000014
:102B20000008024005000000000002400F00000005
:102B3000000802400A000000000802400B000000EC
:102B4000000802400C000000000C024002000000DF
:102B500000080240030000000000024001000000E5
:102B600000080240020000000008024001000000CE
:102B70000004024008000000003001400500000091
:102B8000001000007D1E0008582A0008702A000866
:102B9000682A0008006402408864024000000006C1
:102BA00044000000000800004003000000640240F0
:102BB0001064024000000006380000002000000001
:102BC0000D000000181E00008D0200008C010000A6
:102BD000A01A000000000000EC1D0000F41D000021
:102BE00001000000020000000400000008000000D6
:102BF00010000000200000004000000080000000E5
:102C000000000000963007772C610EEEBA5109994A
:102C100019C46D078FF46A7035A563E9A395649EA6
:102C20003288DB0EA4B8DC791EE9D5E088D9D297CA
:102C30002B4CB609BD7CB17E072DB8E7911DBF9026
:102C40006410B71DF220B06A4871B9F3DE41BE844A
:102C50007DD4DA1AEBE4DD6D51B5D4F4C785D383A6
:102C600056986C13C0A86B647AF962FDECC9658A4A
:102C70004F5C0114D96C0663633D0FFAF50D088DA6
:102C8000C8206E3B5E10694CE44160D5727167A24A
:102C9000D1E4033C47D4044BFD850DD26BB50AA5A6
:102CA000FAA8B5356C98B242D6C9BBDB40F9BCACCA
:102CB000E36CD832755CDF45CF0DD6DC593DD1AB26
:102CC000AC30D9263A00DE518051D7C81661D0BF4A
:102CD000B5F4B42123C4B3569995BACF0FA5BDB8A6
:102CE0009EB802280888055FB2D90CC624E90BB14A
:102CF000877C6F2F114C6858AB1D61C13D2D66B6A6
:102D00009041DC760671DB01BC20D2982A10D5EF09
:102D10008985B1711FB5B606A5E4BF9F33D4B8E865
:102D2000A2C9077834F9000F8EA8099618980EE109
:102D3000BB0D6A7F2D3D6D08976C6491015C63E665
:102D4000F4516B6B62616C1CD83065854E0062F289
:102D5000ED95066C7BA5011BC1F4088257C40FF5E5
:102D6000C6D9B06550E9B712EAB8BE8B7C88B9FC09
:102D7000DF1DDD62492DDA15F37CD38C654CD4FB65
:102D80005861B24DCE51B53A7400BCA3E230BBD409
:102D900041A5DF4AD795D83D6DC4D1A4FBF4D6D365
:102DA0006AE96943FCD96E34468867ADD0B860DA09
:102DB000732D0444E51D03335F4C0AAAC97C0DDD65
:102DC0003C710550AA41022710100BBE86200CC989
:102DD00025B56857B3856F2009D466B99FE461CEE5
:102DE0000EF9DE5E98C9D9292298D0B0B4A8D7C709
:102DF000173DB359810DB42E3B5CBDB7AD6CBAC065
:102E00002083B8EDB6B3BF9A0CE2B6039AD2B17480
:102E10003947D5EAAF77D29D1526DB048316DC73DC
:102E2000120B63E3843B64943E6A6D0DA85A6A7A80
:102E30000BCF0EE49DFF099327AE000AB19E077DDC
:102E400044930FF0D2A3088768F2011EFEC2066900
:102E50005D5762F7CB67658071366C19E7066B6E5C
:102E6000761BD4FEE02BD3895A7ADA10CC4ADD6780
:102E70006FDFB9F9F9EFBE8E43BEB717D58EB060DC
:102E8000E8A3D6D67E93D1A1C4C2D83852F2DF4F80
:102E9000F167BBD16757BCA6DD06B53F4B36B248DC
:102EA000DA2B0DD84C1B0AAFF64A0336607A044180
:102EB000C3EF60DF55DF67A8EF8E6E3179BE6946DC
:102EC0008CB361CB1A8366BCA0D26F2536E2685200
:102ED00095770CCC03470BBBB91602222F2605555C
:102EE000BE3BBAC5280BBDB2925AB42B046AB35C80
:102EF000A7FFD7C231CFD0B58B9ED92C1DAEDE5BDC
:102F0000B0C2649B26F263EC9CA36A750A936D02BF
:102F1000A906099C3F360EEB85670772135700051B
:102F2000824ABF95147AB8E2AE2BB17B381BB60C3F
:102F30009B8ED2920DBED5E5B7EFDC7C21DFDB0B9B
:102F4000D4D2D38642E2D4F1F8B3DD686E83DA1FBF
:102F5000CD16BE815B26B9F6E177B06F7747B7181B
:102F6000E65A0888706A0FFFCA3B06665C0B0111BF
:102F7000FF9E658F69AE62F8D3FF6B6145CF6C161B
:102F800078E20AA0EED20DD75483044EC2B30339BF
:102F9000612667A7F71660D04D476949DB776E3E1B
:102FA0004A6AD1AEDC5AD6D9660BDF40F03BD8373F
:102FB00053AEBCA9C59EBBDE7FCFB247E9FFB5309B
:102FC0001CF2BDBD8AC2BACA3093B353A6A3B424BF
:102FD0000536D0BA9306D7CD2957DE54BF67D9231B
:102FE0002E7A66B3B84A61C4021B685D942B6F2ABF
:102FF00037BE0BB4A18E0CC31BDF055A8DEF022D1B
:1030000000100000004000000080000000200000D0
:10301000000010000200000004000800080010007A
:103020001000180020002000400028008000300020
:10303000000138007D1E0008651E0008651E00089E
:103040007D1E00087D1E000800000000000000003A
:1030500018E0012000000000010203040102030443
:1030600006070809FFFFFFFFFFFFFFFFFFFFFFFF4E
:10307000FFFFFFFFFFFFFFFFFFFFFFFFFFFFFFFF60
:10308000FFFFFFFFFFFFFFFFFFFFFFFFFFFFFFFF50
:10309000FFFFFFFFFFFFFFFFFFFFFFFFFFFFFFFF40
:1030A000FFFFFFFFFFFFFFFFFFFFFFFFFFFFFFFF30
:104000003C0301206D45000865430008A1410008FC
:104010006543000865430008654300080000000090
:104020000000000000000000000000001D8D0008DE
:1040300065430008000000001D8D0008574300087C
:104040006543000865430008654300085B440008B9
:104050006543000865430008314400083144000806
:104060003144000831440008314400086543000829
:104070006543000865430008654300086543000880
:10408000AD4200088142000865430008654300080E
:104090006543000865430008654300083144000893
:1040A0006543000865430008654300086543000850
:1040B000654300086543000869440008654300083B
:1040C0006543000865430008654300086543000830
:1040D00065430008D14100085542000865430008C7
:1040E0003144000865430008654300086543000843
:1040F0006543000865430008654300086543000800
:10410000654300082545000865430008654300082D
:1041100065430008654300086543000865430008DF
:104120006543000831430008294200085D45000846
:1041300065430008654300086543000865430008BF
:1041400065430008654300086543000865430008AF
:104150006543000805430008FD410008D9420008F6
:10416000654300086543000865430008654300088F
:10417000654300086543000865430008654300087F
:10418000654300080000000000000000000000007F
:1041900065430008654300080000000000000000BF
:1041A000EFF30880EFF30981724600F045BA000092
:1041B000684620F007018D4601B5044B186802F0EF
:1041C000BBFBBDE801408546704700BF14000020DE
:1041D00000B504F0FDFDFFF7EBFF04F009BE6846F3
:1041E00020F007018D4601B5034B186802F0C0FBB3
:1041F000BDE80140854670471400002000B504F07A
:10420000E7FDFFF7ECFF04F0F3BD684620F007017F
:104210008D4601B5034B186802F0D2FBBDE80140A2
:10422000854670471400002000B504F0D1FDFFF76B
:10423000ECFF04F0DDBD684620F007018D4601B5B6
:10424000034802F079FBBDE801408546704700BF96
:10425000AC0A002000B504F0BBFDFFF7ECFF04F052
:10426000C7BD684620F007018D4601B5034802F03E
:104270007FFBBDE801408546704700BFAC0A0020C7
:1042800000B504F0A5FDFFF7ECFF04F0B1BD6846F2
:1042900020F007018D4601B5034802F091FBBDE80F
:1042A00001408546704700BFAC0A002000B504F00D
:1042B0008FFDFFF7ECFF04F09BBD684620F007017F
:1042C0008D4601B5034802F037FBBDE80140854645
:1042D000704700BF000B002000B504F079FDFFF728
:1042E000ECFF04F085BD684620F007018D4601B55E
:1042F000034802F03DFBBDE801408546704700BF22
:10430000000B002000B504F063FDFFF7ECFF04F0A4
:104310006FBD684620F007018D4601B5034802F0E5
:104320004FFBBDE801408546704700BF000B0020F1
:1043300000B504F04DFDFFF7ECFF04F059BD00BFE0
:10434000684620F007018D4601B504F081FDBDE807
:1043500001408546704700B504F03AFDFFF7F0FFD5
:1043600004F046BD064B074A5B68684620F007012B
:104370008D4603F03F0301B5136000BE00F0C2FCA0
:1043800000ED00E0A00E0020264B5B68684603F0BD
:104390003F0320F00701103B8D46092B01B517D0D4
:1043A00007D8072B0ED010D8062B37D101220023B7
:1043B00029E0172B0FD0282B19D00A2B2ED1102231
:1043C000042320E0022201231DE0042202231AE03C
:1043D0000822032317E014482022052341690A42DA
:1043E00011D101330A2B4FEA4202F7D10BE00E48FC
:1043F0004FF480620A2341690A4204D10133102B31
:104400004FEA4202F7D108494A61084A0C2101FBF0
:1044100003235A6812B198685B689847BDE8014069
:104420008546704700ED00E0003C0140000F002091
:1044300000B504F0CDFCFFF7A7FF04F0D9BC00BF26
:10444000684620F007018D4601B54FF4800002F068
:10445000FBFCBDE801408546704700B504F0B8FCA0
:10446000FFF7EEFF04F0C4BC684620F00701054BDF
:104470008D464FF6FE7201B51A8200BEBDE80140BE
:104480008546704700080040684620F007018D46C9
:1044900019B51C4B5C6B40F2332222404AB11A4AD8
:1044A0001A48012111704FF0FF329A6317F076FB22
:1044B00023E014F0C00F18D05B691A0506D5124B23
:1044C00012480121197017F069FB0BE0104B1B68B3
:1044D000352B07D10F4B1B78012B0F4B0CBF0F4A0D
:1044E0000F4A1A60074BC0229A63630205D5054B39
:1044F0004FF480029A631AF03FFCBDE819408546EC
:10450000704700BF002C0140E2650020F0650020EC
:1045100014660020EC650020586402407154A30822
:104520003154A30800B504F053FCFFF7ADFF04F0CD
:104530005FBC684620F007018D4601B5054B064873
:104540004FF07C629A60012117F028FBBDE8014022
:104550008546704700640240F065002000B504F015
:1045600037FCFFF7E6FF04F043BC00BF31498D463E
:10457000214B224A9A60224A2248D368224943F0BA
:104580008073D360214B00225A601A68884242F03F
:1045900001021A6005D01E4A824202D0121A3BF074
:1045A00061FB00F0BFFB00F0F1FB1A481A4988429A
:1045B00005D01A4A824202D0121A3BF053FB184827
:1045C000184A194C0021121A3BF080FC00F0DFFB66
:1045D00000F090F9154BE41AA40800251E46A542E8
:1045E00004D056F8253098470135F8E700F00FFA67
:1045F000014B0F4ADA6000BF00ED00E00040000808
:10460000F0ED00E000000020A8690508001000E0BF
:104610000000002000000020A8690508540A0020BE
:10462000580A00201C0001209C6905089C690508A7
:104630000400FA053C03012080B48BB000AFF860A1
:10464000B9607A6000237B6200233B627B68FB7762
:10465000FB7F03F00403002B02D0BB68BB6101E0C9
:10466000FB68BB6101237B617B6983F31088504B3E
:10467000DB6A03F00203002B01D000BE93E04C4B39
:10468000DB6A03F08043002B00F08C80484B9B6A70
:1046900003F08003002B02D0454B5B6B7B62444BE5
:1046A0009B6A03F40043002B02D0414B9B6B3B629F
:1046B0003F4B9B6A03F00103002B01D000BE72E068
:1046C0003B4B9B6A03F00203002B01D000BE6AE063
:1046D000374B9B6A03F00803002B01D000BE62E059
:1046E000334B9B6A03F01003002B01D000BE5AE04D
:1046F0002F4B9B6A03F48073002B01D000BE52E065
:104700002B4B9B6A03F40073002B01D000BE4AE0E0
:10471000274B9B6A03F48063002B01D000BE42E06C
:10472000234B9B6A03F40063002B01D000BE3AE0E8
:104730001F4B9B6A03F48053002B01D000BE32E074
:104740001B4B9B6A03F48033002B01D000BE2AE090
:10475000174B9B6A03F40033002B01D000BE22E00C
:10476000134B9B6A03F48023002B01D000BE1AE098
:104770000F4B9B6A03F40023002B01D000BE12E014
:104780000B4B9B6A03F08073002B01D000BE0AE044
:10479000074B9B6A03F00073002B01D000BE02E0C0
:1047A00000BE00E000BE2C37BD465DF8047B7047BC
:1047B00000ED00E00A4A0B49136800B5184488422E
:1047C0008BB008D968463BF089FE074B0C221A6073
:1047D0004FF0FF3001E0106018460BB05DF804FBAD
:1047E00000000020F8FF012018FF00204FF0FF30EC
:1047F00070474FF400534B6000207047022808B503
:1048000005D93AF039FF09230360002008BD0120D3
:1048100008BD0020704710B5144628B90846114657
:1048200000F052FA204610BD3AF026FF092303603B
:104830004FF0FF3010BD00000138012870B515465B
:1048400002D88E180C460BE03AF016FF09230360DD
:104850004FF0FF3070BD94F900300A2B03D00134C3
:10486000B442F8D10BE08C4203D00846611A00F044
:104870000FFA0121054800F00BFA2146EFE7084640
:10488000611A00F005FA284670BD00BFB907050897
:10489000174B102283F80323202283F83123302280
:1048A00083F83B2383F80E23602283F8252383F8C3
:1048B000262383F84723702283F8452383F839237E
:1048C00083F8462383F83A2383F8112383F81023CF
:1048D000E02283F8062383F8072383F8082383F86C
:1048E000092383F80A2383F8172383F828237047C2
:1048F00000E100E038B5154C04F1A005284603217D
:1049000001F0CAF90321284601F0C6F9284601F052
:10491000EBF8284604F5847501F0E6F803212846F3
:1049200001F0BAF9284601F0D1F804F1580000214D
:1049300001F0B2F904F58C70022101F0ADF90448E0
:104940000449054ABDE8384000F072B90C860408F5
:10495000AC0A0020548704086C880408014608B596
:10496000044803F0D3F80348402103F0F5F8002889
:10497000F9D008BD0044004038B505460024E3B234
:104980000134E85C10B1FFF7E9FFF8E738BD00003B
:10499000064B074A1A60074B1A68074B1A60074B09
:1049A000074A5A6006221A60704700BF08100020AC
:1049B000ADBAADBA004000082010002010E000E0C1
:1049C0009F860100074B0022F0211A765A769A76CC
:1049D000D97783F82020402283F8221083F82320FF
:1049E000704700BF00ED00E010B5044670B101292A
:1049F0000CD103F079FF204603F0BCFDE0683AF0EB
:104A000055FE2046BDE810403AF050BE10BD08B536
:104A100003F0B2FA002008BD10B5B42086B03AF019
:104A20003DFE04464FF400503AF038FE4FF4005378
:104A30000193072302930393012200230090059220
:104A4000049320460549064A03F010FD0549204617
:104A500006B0BDE8104003F0B9BD00BF38890408B6
:104A6000B94A0008E94900082DE9FF410A9C0546BA
:104A700020461F46884616463AF010FE0346C5F803
:104A8000B40090B10B9A02928DE810012846394685
:104A9000324617F023F8044648B1D5F8B4003AF08E
:104AA00005FE0023C5F8B43001E0082000E02046F0
:104AB00004B0BDE8F081000007B54FF40073002199
:104AC00000930191044A054B0548FFF7CDFF03B061
:104AD0005DF804EB05F046B843890408658C0108CD
:104AE000540D002038B5054617F020F858B928466F
:104AF00017F025F8044628B9D5F8B4003AF0D6FDE9
:104B0000C5F8B440204638BD10B5044603F06AFD30
:104B1000844214BF0420002010BD08B503F04CFFF0
:104B2000002814BF0420002008BD10B5044604F07E
:104B3000BBF82060002010BD08B50449012203F035
:104B400039FA002814BF0420002008BDE32C050812
:104B500008B54FF0FF3103F0C1FA002814BF04205C
:104B6000002008BD08B503F08BFB002814BF04200B
:104B7000002008BDF8B512F003070546144613D10E
:104B800003FB02F630463AF089FD0146E86368B15E
:104B900023462846324617F03BF8044640B1E86BFE
:104BA0003AF084FDEF6303E00420F8BD0820F8BD6F
:104BB0002046F8BD38B5054617F064F8044618B924
:104BC000E86B3AF073FDEC63204638BD1FB50091E9
:104BD000019100210291054903F044FF002814BF10
:104BE0000420002005B05DF804FB00BFE32C05089D
:104BF000C16810B50A46044603F024FF08B104203A
:104C000010BD204603F012FF0028F8D110BD08B5F2
:104C100003F05EFF002814BF0420002008BD08B583
:104C200003F098FF002814BF0420002008BD0000F6
:104C30002DE9F041114B124C1860054620461646EE
:104C40000F4616F085FF20460E4C002116F0A6FFF9
:104C5000204616F07DFF20460B4C002116F09EFFEB
:104C600020460A49402201F059FF2846394632467B
:104C70002346BDE8F04101F00FBD00BF6C0E0020DF
:104C8000700E00204C0E0020900E00200C0E002014
:104C900070B50B4C236806460D4683B14FF0FF31CB
:104CA0000022084816F062FF314620682A4601F0CB
:104CB0003BFC04480021BDE8704016F06FBF70BD9A
:104CC0006C0E0020700E002037B50C4C019123684B
:104CD000054683B14FF0FF310022094816F046FF28
:104CE0002946206801AA4FF0FF3301F05BFC04481D
:104CF000002116F053FF03B030BD00BF6C0E002042
:104D00004C0E0020BFF34F8F0449054BCA6802F4D4
:104D1000E0621343CB60BFF34F8FFEE700ED00E08E
:104D20000400FA0507B5012002F02CF902F03AFA66
:104D3000002002F067F9002002F078F94FF480506B
:104D400002F06AF9032002F085F8012002F088F8E9
:104D5000042300934FF480001A21C822022302F09A
:104D600029F9012002F036F9392002F007FA00286B
:104D7000FAD0022002F034F902F03CF90828FBD105
:104D8000042003B05DF804EB01F012BF704708B5D2
:104D900001F03EFE0023F02103F1604202F5614282
:104DA0000133602B82F80013F6D14FF4407001F00C
:104DB000F5FEFFF707FEFFF76BFD00F01DFF01F0AA
:104DC00043F801F0A9F8BDE8084001F045BA000039
:104DD0000128034801D100F087BE00F077BE00BF74
:104DE0004C8804087047000010B5054C032120468C
:104DF00000F052FF204600F077FE002010BD00BFFB
:104E00005488040810B5074CFFF7EEFF00F01CF8BB
:104E10000321204600F040FF204600F065FE002000
:104E200010BD00BF4C88040838B514460D462A460C
:104E300019460448234600F08BF800280CBF204692
:104E4000002038BDBC0E002030B5104C257887B04E
:104E50000DB1002018E00E483BF05EFB294601A88A
:104E6000012216F0F3FD03200A4900F03EF850B984
:104E700009490A4A0A4B1AF069FDB0FA80F0400964
:104E800020700028E5D1042007B030BDA40E00201A
:104E90005E890408BC0E0020294E0008EC0E00209C
:104EA000A80E002008B5FFF72DFF00B595B0002330
:104EB00013938DF84810012369468DF849308DF819
:104EC000243000F083FB08B104200BE06846042185
:104ED0001822502300F01CFB20B1684600F0E0FAD5
:104EE0000028F1D115B05DF804FB38B50C460C3143
:104EF000054600F06BFB28B94FF0FF33257060606A
:104F0000A36038BD042038BD0C3000F063BC38B558
:104F100000F10C040546204600F084FC28B92878EE
:104F20002146BDE8384000F05EBB042038BD37B5EF
:104F3000044600F10803154600930C3062682B46C6
:104F400000F01EFD10B963681D44656003B030BDFC
:104F500010B50C460C3011462246BDE8104000F05A
:104F600073BD2DE9F04F91B082461A9E88461746D0
:104F700099460C464FF0000BBC4220D23D1B402D01
:104F800028BF4025504621466A462B4616F0EEFBC8
:104F9000B9F1010F0BD1C8EB0403132B07D8EA18A2
:104FA000182A82BF14334FF000094DF803B032467F
:104FB0006846294601F0E0FD2C440646DCE7304611
:104FC00011B0BDE8F08F7FB50C461546143103AA29
:104FD0000423064616F0CAFB4FF0FF330093304619
:104FE00021462A460123FFF7BCFF039BC31A584200
:104FF000584104B070BD2DE9F041804690B00E4696
:1050000017461C46C4B1402C254628BF40254046C3
:1050100039466A462B4616F0A9FB08B104200CE07D
:10502000404631466A462B4616F0ACFC0028F5D1C6
:105030002F442E44641BE5E7204610B0BDE8F08104
:10504000F0B5002785B00E46144605461773576124
:1050500010464FF4C6714FF0FF328DF80F7001F01B
:105060008BFD3B46009006F5C67106F5804228464A
:10507000FFF777FF012760612773284631462246F4
:105080004FF4C67316F07EFCA0B9284606F10C0159
:105090000DF10F023B4616F075FC044650B9094964
:1050A0008E4208D028460F310DF10F023B4616F014
:1050B00069FC00E00424284616F0C6FC204605B032
:1050C000F0BD00BF0000000070B5054668B10C4699
:1050D00001F58046B44206D22146284616F02EFC41
:1050E00004F58054F6E7002070BD042070BD000078
:1050F00038B50D4604464FF4C6723AF0B3FD2B683E
:1051000023606B68636005F1180104F118005022F8
:105110003AF0A8FD04F1680005F168014FF49072BF
:105120003AF0A0FDD5F88831C4F88831054BA3606A
:105130006B7B63732B69002001332073E073606124
:10514000236138BD4252434D2DE9F041ADF5996DD3
:1051500000214FF4C6720746CFA83AF0B7FE0021EF
:1051600004A80A468DF80F1016F070FC002842D1F2
:105170004C4C04A8214609AA4FF4C67316F0F6FA5F
:1051800018B104A816F060FC35E0DFF82C8104A803
:1051900041466CAA4FF4C67316F0E8FA0028F0D125
:1051A0009DF930309BB90B993F4A914211D19DF93D
:1051B0003350012D01D10E9B63B13C4A394904A8FB
:1051C0002244FFF700FF431E5D425D4102E00546B9
:1051D00000E01D469DF9BC31354E7BB96E9A324BCD
:1051E0009A420BD1334A344904A84244FFF7EBFEFC
:1051F000012803D105E04FF0FF304EE0012D18D11A
:1052000013E0012D09D12D4B1D709DF93330012B79
:105210000BD00D9A709B9A4207D204A816F014FC8A
:1052200056F8273008EB030037E004A816F00CFC12
:1052300030E0234B1B49012504A81D70FFF744FFF4
:1052400000214FF4C672CFA83AF040FE164BD1931E
:105250004FF4C6714FF0FF32CFA88DF8495301F0DB
:105260008BFC124A009017492244002304A8FFF740
:1052700078FE0C49D490CFAA4FF4C67304A88DF8D9
:10528000485316F07FFB04A80F490DF10F022B467F
:1052900016F078FB56F8270020440DF5996DBDE80F
:1052A000F08100BF000000004252434D004000006A
:1052B000848904080040000000400000FE0E002029
:1052C000FD0E00208C0100000C000000F0B504462B
:1052D000E5B004200F461646FFF736FF431C05468F
:1052E0001DD0104A1049884208BF11463960204637
:1052F000FFF7EAFE2046294601AA4FF4C67316F0CE
:1053000035FA18B1204616F09FFB08E0002EF9D0C0
:10531000304601A9FFF7ECFE0028F3D100E004209D
:1053200065B0F0BD004000000000000070B504460C
:10533000EAB004200D46FFF707FF431C064601D1E3
:1053400004202FE002A80021012216F07FFB002894
:10535000F6D102A801A907AAFFF7B8FF0028EFD1EC
:10536000242307AA03FB0525234603F1200205F1A8
:10537000680418685968254603C5083393422C46CB
:10538000F7D118682860019906F5C67201F5C67153
:1053900002A843F67463FFF72EFE02A8019907AA3C
:1053A000FFF74EFE6AB070BDF0B50546E5B00420CB
:1053B0000F461646FFF7C8FE431C04461DD0386052
:1053C00021462846FFF780FE0D4B0E4928468C42A9
:1053D00008BF194601AA4FF4C67316F0C7F918B1F1
:1053E000284616F031FB08E0002EF9D0304601A91E
:1053F000FFF77EFE0028F3D100E0042065B0F0BD89
:105400000040000000000000F0B50E4687B000210B
:105410000546144601A80A461F4616F017FB68B950
:10542000234601A8B9192A4616F0A0F9002801A8B8
:1054300014BF0424002416F007FB00E004242046D7
:1054400007B0F0BDF0B51D46134B87B006461746B2
:10545000084601221A70FFF777FE104B1860431CB4
:10546000044601D1042413E0002101A80A4616F0E5
:10547000EDFA0028F6D1E11901A832462B4616F0C4
:1054800075F9002801A814BF0424002416F0DCFAE2
:10549000204607B0F0BD00BFFC0E0020F80E002033
:1054A00030B50446EBB008B9042027E00420FFF72C
:1054B0004BFE431C0546F7D002A80021012216F03E
:1054C000C5FA0028F0D102A801A907AAFFF7FEFE3D
:1054D0000028E9D1019905F5C67201F5C67143F6B8
:1054E000746302A8FFF787FD214650220DA83AF009
:1054F000B9FB02A8019907AAFFF7A2FD6BB030BD66
:10550000072902D808B1FFF711BF04207047000037
:105510002DE9F0431F462B4B53F821402A4B1444EE
:105520004FF00108B4F5C67FEBB0814683F80080E8
:1055300024D3E519B5F5804F20D80420FFF704FEE9
:10554000431C06461AD002A80021424616F07EFAF5
:10555000A0B902A801A907AAFFF7B8FE70B9B4F56F
:10556000C6730DD0019902A801F5C67106F5C67281
:10557000FFF741FD20B102A816F066FA04201EE0F4
:10558000019902A821444A463B4616F0FBF900283F
:10559000F1D1D5F5804308D0019AB91802A8214469
:1055A0007219FFF728FD0028E5D1012302A801990F
:1055B0008DF8293007AAFFF743FD0028DBD16BB037
:1055C000BDE8F08384890408FF0E0020072808D86E
:1055D00000EBC00292000846683204212423FFF742
:1055E00031BF042070470728034603D808461946F0
:1055F000FFF786BF04207047064A074B914210B55B
:1056000053F8203001D1C81810BD044CA142FAD083
:10561000D01810BD0000000084890408004000007C
:1056200070B50D461446064668B161B15AB1002105
:10563000012216F00BFA30B9304629462246BDE861
:105640007040FFF7B1BE042070BD00002DE9F043AB
:105650001F462B4B53F821402A4B1444B4F5C67F08
:105660004FF00102EBB081461A7024D3E619B6F56B
:10567000804F20D80420FFF767FDB0F1FF3F804640
:1056800019D002A801A907AAFFF7CAFF98B91E4BB3
:105690001E4DA84508BF1D46B4F5C6730DD001992F
:1056A00002A801F5C67105F5C672FFF7A4FC20B18A
:1056B00002A816F0C9F904201EE0019902A82144AD
:1056C0004A463B4616F05EF90028F1D1D6F58043F4
:1056D00008D0019AB91802A82144AA19FFF78BFC37
:1056E0000028E5D1012302A801998DF8293007AAE5
:1056F000FFF7A6FC0028DBD16BB0BDE8F08300BF4C
:1057000084890408FF0E0020004000000000000013
:105710002DE9F041002790F800803C46FDB2454558
:1057200031D2BE00851990F801C0AD882D03BCF1BF
:10573000000F01D0A5EBD515A14205EB040E1FD338
:1057400071451DD2091BBCF1000F0FD006440F0B91
:1057500074884FF47E6001EB471704EB1736B1FBFA
:10576000F0F400FB141000EB063003E006447088F0
:1057700001EB0030691A106019600020BDE8F0816B
:1057800074460137CAE70420BDE8F08170B50139DD
:105790000C1886B020F47F65164624F47F6401A8B7
:1057A0000021012225F00F0524F00F0416F04EF918
:1057B000A54209D8B54203D001A8294616F0BEF883
:1057C0002E4605F58055F3E701A816F03DF9304661
:1057D00006B070BDF0B500248FB007460C602246BD
:1057E0000D466846214605AE16F030F93246684649
:1057F0007968222315F0BAFF9DF814200134631E46
:10580000DBB2934205D2296836F824300B442B6072
:10581000F4E72B681B032B60684616F015F900208F
:105820000FB0F0BD2DE9F0470446AAB00D460021A7
:105830000A4668460FAF16F009F93A462223684631
:10584000616815F093FF00229DF83C001346013279
:10585000511EC9B2814203D237F822100B44F6E739
:105860001B03AB4204D3684616F0EEF8002581E036
:10587000ED1A4FEA1538C5F30B050DB108F1010813
:10588000684616F0E1F80025022323706560A946FA
:10589000E8B221A9FFF79AFE0646002848D19DF8F4
:1058A0008430022B32D13146324605A816F0CEF8AC
:1058B000314632460AA816F0C9F8229918AA0AA851
:1058C000222315F053FF9DF8600018A93246B24616
:1058D000D3B283420CD28B884E881E44B6B2564552
:1058E000334638BF53461FFA83FA01320431EFE7DB
:1058F00005A816F0A9F8229B6268934224BF2233C0
:105900006360D14538BFD1461FFA89F90135082DAA
:10591000BED16268194B9A420AD8684621A915F08F
:105920003DFF219BC9EB133398454FF0000501D98A
:1059300004251FE09DF83C302AAA02EB8302294689
:10594000013322F86A9C22F8688C684601228DF89F
:105950003C3016F07BF861683A462223684616F020
:1059600011F8684661683A46222315F0FFFE684642
:1059700016F06AF828462AB0BDE8F087DE0F02006C
:105980002DE9F041064690B00F46904600210122D5
:1059900002A81C46169D16F059F82223716807AA22
:1059A00002A815F0E3FE02A816F04EF89DF81D308F
:1059B0002BB1069B1BB142F264029E5824E0214E9B
:1059C00022E007A841466A4601ABFFF7A1FE002886
:1059D00033D1019B9C421AD92DB100982A682146E7
:1059E000FFF7D4FE28600021012202A816F02EF84D
:1059F0003A46019B009902A8B04702A816F024F885
:105A0000019BE41A98441F44002CDAD113E02DB115
:105A100000982A682146FFF7B9FE2860002101227C
:105A200002A816F013F802A800993A462346B04798
:105A300002A816F009F8002000E0042010B0BDE82C
:105A4000F08100BF85B901082DE9F041044690B00E
:105A50000F460021904602A80A461D4615F0F6FFA3
:105A6000222302A8616807AA15F080FE9DF81D3068
:105A70002BB1069B1BB142F260029E5800E0124E11
:105A80000024CDB1C4B907A841466A4601ABFFF76F
:105A90003FFE80B9019B00999D4202A83A4603D877
:105AA0002B46B04784B207E0B047019B84B2ED1AA1
:105AB00098441F44E5E7042402A815F0C5FF2046DA
:105AC00010B0BDE8F08100BF6DB7010810B5044605
:105AD00000F022FA2179226801238B409BB21383C4
:105AE00000F032FA002010BD10B5044600F014FAA0
:105AF0002179226801238B409BB2538300F024FA62
:105B0000002010BD10B5044600F006FA2368217984
:105B10001A6901238B40134214BF0124002400F0B2
:105B200013FA204610BD00002DE9F3412F4F0379F1
:105B300001249C40054600F0EFF93B68A2B21A42EE
:105B40004CD02B792A4E4FF00C0808FB03F3F15888
:105B50002B68994242D100238DF806308DF804302D
:105B6000684608238DF80530009201F023F9684655
:105B70008DF8058001F01EF9E30603D02C79063478
:105B8000E4B215E014F4787F07D03B6813F4787F13
:105B900014BF01230023172409E014F47C4407D028
:105BA0003B6813F47C4F14BF0123002328244BB916
:105BB00063B25B0904F01F04012220330D49A240A7
:105BC00041F823202A790C235343F2180024F4507F
:105BD0005460946000F0B8F9204603E000F0B4F996
:105BE00041F27A7002B0BDE8F08100BF003C014094
:105BF000000F002000E100E008B5C02200210548A8
:105C00003AF064F94FF48040012101F093FA00204A
:105C100008BD00BF000F00201B4B98422AD012D8AD
:105C2000A3F54063984221D004D8A3F5806398423D
:105C300028D025E0154B98421AD003F5806398428E
:105C40001ED103207047124B984215D005D8A3F5FA
:105C50008063984214D1052070470E4B98420DD0B6
:105C600003F5806398420BD10820704701207047EC
:105C700002207047042070470620704707207047B5
:105C8000FF207047002070470010024000080240CB
:105C900000180240001C024073B506460C4600F096
:105CA0003BF935682846FFF7B7FF164A164B116BCC
:105CB00053F820300B43136302239C4294BF00220D
:105CC00001228DF80420E21E18BF01228DF8053054
:105CD0008DF806200CB1052C01D1012302E0012C26
:105CE00018BF002332798DF8073002A901239340B1
:105CF00041F8083D284601F0BFF800F025F90020E2
:105D000002B070BD00380240A08904082DE9F743B5
:105D10001D460379012402290746164604FA03F4B6
:105D200006D0032907D001294ED14FF0080904E01D
:105D30004FF00C0901E04FF0100900F0EDF8244B92
:105D40001B6814EA03083AD13868FFF765FF397910
:105D500001F068FC012321461E488DF806308DF8BD
:105D6000059000948DF804803AF0C2FB684601F07B
:105D700021F8E30603D039790631C9B209E014F4F9
:105D8000787F05D114F47C4F0CBF0021282100E05E
:105D900017214BB2012201F01F018A405B090E4915
:105DA000386841F823203A790C490C235343CA1828
:105DB000C8505660956000F0C7F8002005E000F07C
:105DC000C3F841F27A7000E0052003B0BDE8F0832B
:105DD000003C0140C089040800E100E0000F002001
:105DE0002DE9F3410D4690461F460646FFF714FF86
:105DF000044600F091F81249124A0B6B52F8244005
:105E00001C430C6302218DF805108DF8041001224B
:105E100002A9AA4041F8082D30468DF806808DF879
:105E2000077001F029F8304629469DF8202001F03E
:105E300067F800F089F8002002B0BDE8F08100BFEB
:105E400000380240A089040830B587B001F050FA4C
:105E5000002303937F23049303A8FF23059301F0FA
:105E600003FA4FF08050012101F058F9012001F0B0
:105E70007BF8012001F08EF8412001F07FF9002825
:105E8000FAD04FF4807001F01FF9012001F034F9CD
:105E900001F00CFA002001F06DFB4FF4800000F0DF
:105EA000D3FF012001F066F84FF4806001F0ACFBF5
:105EB000032001F03BFB4FF4800000F0C5FF4FF4DE
:105EC0008003002401930825012301A88DF80A30DE
:105ED0008DF808408DF8095000F06CFF0B4B4FF423
:105EE00080401D60214601F06FFB094B1A6842F0AB
:105EF00001021A601A6822F002021A60054A136948
:105F0000204643F00403136107B030BD00E100E018
:105F10000070004000ED00E072B6094B1A68002ADC
:105F2000DFBF08490A6922F004020A61DCBF0022CF
:105F30001A601A6801321A6062B60020704700BF0A
:105F4000C80F002000ED00E072B6094A1368013B5B
:105F5000002BD8BF07491360DFBF0B6943F0040370
:105F60000B610023D8BF136062B60020704700BFEA
:105F7000C80F002000ED00E0014B01221A707047AD
:105F8000C00F0020431C73B5044607D1032001F065
:105F9000CDFA3A4B4FF4C8621A6020E0384900232A
:105FA00020204FF6FE7551F82320B0FBF2F2624339
:105FB000AA4207D831490A60324A52F8230001F058
:105FC000B5FA0CE00133042BEDD1184601F0AEFA1E
:105FD0002A4A4FF47A73B4FBF3F3013313602A4B6C
:105FE0001B6913F0040045D0284EF068FFF76EFDE2
:105FF00072B6274D2B6823F0030301212B604FF469
:10600000804001F0E1FA4FF4800000F01DFF012014
:1060100000F0B0FF4FF4806001F0F6FA174B1868FB
:1060200001F096FA012001F0A5FA00F08BF9194A67
:10603000536843F00303536030BF002001F09AFA25
:1060400000214FF4804001F0BFFAFEF76BFE2B6891
:1060500043F003032B6001F087FA204601A900F00A
:106060009DF962B60C4BF06800221A70FFF73CFDF8
:10607000019801E062B630BF02B070BDC40F0020CD
:10608000F8890408088A040800ED00E004000020F4
:1060900010E000E0002004E0C00F002037B5002031
:1060A000694601F0B5F901A9002001F01FFA9DF839
:1060B000071071B10A46002340F26D14013A12F044
:1060C000030F14BF20464FF4B7700344002AF5D1E4
:1060D00000E00B469DF8052062B1124C124D013ACA
:1060E00001F0030132B109B9505700E010570344E1
:1060F000013AF7E79DF801009DF802203C2111FBD1
:1061000000229DF800104FF4616000FB01229DF811
:10611000060018B101381844044B5843104403B02A
:1061200030BD00BF648A0408188A04088051010049
:1061300070B5154E3578044685B9012822D1284618
:1061400001F05EF801F068F8104B1D611A6942F425
:1061500020121A6101F080F8204610E0012D11D1C3
:1061600080B901F04DF801F057F8084BFF221A6191
:106170001A6942F4FE021A6101F06EF8284601F035
:106180003FF83470002070BDD00F00200028004080
:106190002DE9F0412D4DDFF8B8C06E7995F806E095
:1061A0002F79AA78EB7869782C78DFF8A880002816
:1061B00041D03B2C3BD13B2935D1172A2ED11EF0A3
:1061C000030F0CBF18F906201CF9062097421BD1BB
:1061D0000C2E11D10EF1010E072B5FFA8EFE03D1AA
:1061E000012601231F4603E001330126DBB23746B7
:1061F0000022114614461CE00136072BF6B2F0D0FF
:106200000133DBB20127F3E7072B18BF013307F196
:10621000010714BFDBB20123FFB2E9E7013200211D
:10622000D2B20C4605E00131C9B2002401E00134CC
:10623000E4B20138BBE72C706970AA702F7185F841
:1062400006E06E71EB70BDE8F08100BFD10F002059
:10625000648A0408188A04081FB512483AF05CF9E9
:10626000002301937F23029301A8FF23039300F0EF
:10627000FBFF012000F08EFE412000F07FFF18B9E7
:1062800009483AF049F9F7E74FF4807000F01CFF35
:10629000012000F031FF01F009F8002005B05DF8A1
:1062A00004FB00BF258A04083F8A040813B58278DE
:1062B0008DF8002042788DF8012002788DF80220B8
:1062C00002798DF8062000244279C3788DF80520E4
:1062D000694682798DF8072020468DF804308DF8C4
:1062E000034001F049F801A9204601F0B3F8012864
:1062F00018BF204603F0FCF9002002B010BD13B512
:1063000004466946002001F083F8002001A901F04D
:10631000EDF89DF80030A3709DF8013063709DF892
:10632000023023709DF8063023719DF805306371AB
:106330009DF80730A3719DF80430E370002002B08F
:1063400010BD000038B51348134D0024FFF7D7FFE8
:10635000002000F055FF00F05FFF2C6000F07CFF94
:1063600000F0A4FF012000F04BFF204600F048FFA2
:1063700000F052FF42F201136C606B6000F06CFFA2
:1063800000F094FF012000F03BFF0120FFF7D0FE5A
:10639000204638BDD10F0020002800402DE9F041F3
:1063A0000D460746FFF77AFE044638F0FDFB184914
:1063B00038F052FC38F03CFE4FF47A730646B0FBDE
:1063C000F3F008B1FFF7E4FEDFF84C804FF44872B9
:1063D000B4FBF2F302FB1344D8F800301C4494429F
:1063E000C8F8004006DD0120A4F54874FFF7D0FE90
:1063F000C8F800400748FFF759FF0020FFF798FE54
:10640000012F96BF01232E602B600020BDE8F08194
:106410000000A03FD10F0020CC0F0020FFF73EBEB0
:106420000E4B984204D80E4A936819439160704706
:106430000C4B984204D80A4AD3681943D16070477C
:10644000094B9842A3F1580395BF9A68DA68114343
:10645000114394BF9960D960704700BF58600240F3
:1064600000600240B8600240586402402DE9F041EB
:106470001E46436804468846174693B10268116B6E
:1064800010680B6843F480730B6040F2255101F0F3
:1064900069FB236840F225511868012201F043FB93
:1064A00006E00368E2641A6B136823F480731360D8
:1064B0002368DA6B196C186B1143FFF7B1FF226880
:1064C000156B10686F60C5F80C802B6843F00103F2
:1064D0002B604021012201F01DFB3EB104F10800B8
:1064E00031460122BDE8F04115F040BB3046BDE821
:1064F000F0810000094B984202D853F8580C7047BD
:10650000074B984202D853F8B40C7047054B984299
:10651000A3F1580394BF1868586870475860024048
:10652000B8600240586402402DE9F0410446174625
:106530008846FFF7F1FC23685A6A996A98692546EC
:106540001143FFF76DFF55F8286B0023A4F8523074
:10655000B369A764186820F4807018605F60C3F89E
:106560000C801A68306842F001021A608021012212
:1065700001F0D0FA28464FF0FF31012215F0F6FA6B
:106580002368186803885B06FCD58021002201F08F
:10659000C1FA0023A364FFF7D7FCB4F8520080B21D
:1065A000BDE8F0812DE9F04F304F9A463B689046A8
:1065B0001B6802689A4285B00546894601D0FFF7FC
:1065C000ABFC6B68002B3ED00024A346D8F800300B
:1065D000002B40D06868466876089E4228BF1E4659
:1065E00000F0C0FA86420FD9A5F850B005F10800B6
:1065F000EE645146012215F0B9FA0228C5F84CB0F4
:1066000028D0B5F85040A4B2D8F800309B1BC8F889
:10661000003002A903AA686800F087FA039B029978
:10662000B34228BF334648461A460393019339F0D4
:1066300019FB019B6868F61A1946994400F088FA1C
:10664000002EE6D1C2E728464946D8F80020534636
:10665000FFF70CFF04463B682A681B689A4201D08A
:10666000FFF772FC204605B0BDE8F08F1400002053
:10667000084B98420AD0A3F54C43984208D003F542
:10668000504398420CBF0220FF2070470020704703
:1066900001207047001001402DE9F0470C4696B0EC
:1066A000054616469846FFF737FC2068FFF7E0FFDF
:1066B000814628460027EF64AF64A5F85270A5F81C
:1066C000507040F8284B15F043FA05F1080015F01A
:1066D0003FFA934A636812F809A01979CDF800A02F
:1066E00018683A463B46FFF77BFBA3681979CDF85B
:1066F00000A018683A463B46FFF772FBE36863B1B7
:10670000F27902F0FD02012A07D11979CDF800A033
:1067100018683A463B46FFF763FB23695BB1F279A1
:10672000023A012A07D81979CDF800A0002218688A
:106730001346FFF755FB7B4A7B4B52F8290053F871
:106740002930012198470C23ADF8163033680393A4
:106750003379042B08D0032B09D17379002B0CBF9C
:1067600000234FF4805303E04FF4805300E00023F4
:10677000ADF81030B379002B0CBF00234FF4005359
:10678000ADF812307379012B08D005D3022B40F0FD
:10679000C3804FF4806303E0002301E04FF4C06343
:1067A000ADF81430F379032B00F2B680DFE803F084
:1067B0000204070A002307E04FF4007304E04FF4DB
:1067C000807301E04FF440732068ADF8183001F099
:1067D000C7F803A92068DFF85CA101F02FF962690E
:1067E000524BA0699A42A3F520534FF6FF771A6BDC
:1067F0000CBF42F4001242F480021A634FF480622C
:106800000D924FF4403211920322139232790023F9
:10681000042A0C9312931493159303BF4FF400634F
:106820000E934FF400530E930F9300F0CDF9E369EC
:1068300007932368A0690B970433002607A90893E0
:1068400040230A930996109600F044FA206B00F05A
:10685000BBF9636B07932368206B0B97043307A97D
:10686000089309960A96109600F034FA94F82030AE
:10687000A0695AB20127520903F01F0307FA03F374
:106880004AF82230636AA16A1943FFF7C9FDA0697B
:1068900096213A4600F06EFA254B206813F809302D
:1068A0005AB2520903F01F0307FA03F34AF82230E1
:1068B000394601F01FF9226893899BB243F008031F
:1068C000938193899BB243F004039381B8F1000F45
:1068D00009D0C5F80480EE64284698E806003346DF
:1068E000FFF7C4FD14E094F83830206B5AB2520917
:1068F00003F01F0307FA03F34AF82230216CE36B1D
:106900001943FFF78DFD206B96213A4600F032FACD
:10691000FFF71AFB002000E0052016B0BDE8F08765
:106920008C8A0408748A0408808A04080060024083
:10693000718A040800E100E003681A681B6B10B557
:106940004FF6FF710446406811805A6843689B1AED
:10695000C360E36C5BB100F005F9E36C984206D3C9
:1069600004F10800012115F019F90023E36410BDBA
:10697000036810B504469869FFF7BCFD2368596A9F
:10698000084205D09869FFF74BFD0023A4F8523068
:1069900023689869FFF7AEFD2368996A084205D01D
:1069A0009869FFF73DFD0423A4F85230A36C33B17E
:1069B00004F128000121BDE8104015F0EFB810BD2A
:1069C000036810B50446186BFFF794FD2368D96B74
:1069D000084205D0186BFFF723FD0023A4F85030C0
:1069E0002368186BFFF786FD2368196C084205D0F1
:1069F000186BFFF715FD0423A4F85030E36C33B196
:106A000004F108000121BDE8104015F0C7B810BD21
:106A10001FB545F2555000F085FA062000F088FABF
:106A20004FF47D6000F08AFA00F08EFA00F094FADC
:106A30001B4B9B68DB042ED50420012100F06EFB6C
:106A40000420002100F082FB45F6C0534AF22212D6
:106A5000ADF8043013480292002301A9ADF80630C6
:106A6000ADF80C308DF80E3000F0F2FD0D4801212C
:106A700000F071FF01210A460A4800F063FF09484F
:106A8000012100F023FE084B06484FF080421A60B7
:106A9000012100F027FE002005B05DF804FB00BFD7
:106AA000002004E00008004000E100E01FB500F015
:106AB0004BFA114B9B68DB0419D51048002100F0FC
:106AC00011FE45F6C053ADF804304AF222120023FD
:106AD0000A48ADF8063001A90292ADF80C308DF8E5
:106AE0000E3000F0B5FD0548012100F0FBFD00204F
:106AF00005B05DF804FB00BF002004E00008004082
:106B0000054B586F10F000501FBF5A6F42F0807253
:106B10005A670120704700BF00380240034680E8F2
:106B2000060000209860D8607047036870B545681B
:106B300084682E1B1C44C3680C603344B3FBF5F11E
:106B400005FB1133B34294BF13601660002070BD83
:106B5000836842681944B1FBF2F302FB13118160B0
:106B6000002070474268C368806813441B1AB3FB57
:106B7000F2F002FB1030704710B5074C0144884218
:106B800008D210F8013B5340DBB254F8233083EABB
:106B90001222F4E7104610BD908A040840F0BF604E
:106BA000024B40F40030D860704700BF00ED00E0B9
:106BB000044B1A6804280CBF42F0040222F00402BD
:106BC0001A60704710E000E0036823F001030360DF
:106BD0000023036043608360C3600361212343613A
:106BE000294B984217D0294B98421BD0284B9842EA
:106BF00020D0284B984225D0274B98422AD0274BAB
:106C000098422ED0264B984232D0264B984236D00E
:106C1000254B984203D13D2243F8082C7047234B63
:106C2000984204D14FF4746243F8202C7047204BF3
:106C3000984204D14FF4741243F8382C70471D4B1E
:106C4000984204D14FF0746243F8502C70471A4BAD
